{
  "contractName": "SingleMultiSig",
  "abi": [
    {
      "constant": true,
      "inputs": [
        {
          "name": "",
          "type": "uint256"
        }
      ],
      "name": "owners",
      "outputs": [
        {
          "name": "",
          "type": "address"
        }
      ],
      "payable": false,
      "stateMutability": "view",
      "type": "function"
    },
    {
      "constant": true,
      "inputs": [
        {
          "name": "",
          "type": "address"
        }
      ],
      "name": "isOwner",
      "outputs": [
        {
          "name": "",
          "type": "bool"
        }
      ],
      "payable": false,
      "stateMutability": "view",
      "type": "function"
    },
    {
      "constant": true,
      "inputs": [
        {
          "name": "",
          "type": "uint256"
        },
        {
          "name": "",
          "type": "address"
        }
      ],
      "name": "confirmations",
      "outputs": [
        {
          "name": "",
          "type": "bool"
        }
      ],
      "payable": false,
      "stateMutability": "view",
      "type": "function"
    },
    {
      "constant": false,
      "inputs": [],
      "name": "destroy",
      "outputs": [],
      "payable": false,
      "stateMutability": "nonpayable",
      "type": "function"
    },
    {
      "constant": true,
      "inputs": [],
      "name": "owner",
      "outputs": [
        {
          "name": "",
          "type": "address"
        }
      ],
      "payable": false,
      "stateMutability": "view",
      "type": "function"
    },
    {
      "constant": true,
      "inputs": [
        {
          "name": "",
          "type": "uint256"
        }
      ],
      "name": "transactions",
      "outputs": [
        {
          "name": "destination",
          "type": "address"
        },
        {
          "name": "value",
          "type": "uint256"
        },
        {
          "name": "data",
          "type": "bytes"
        },
        {
          "name": "executed",
          "type": "bool"
        }
      ],
      "payable": false,
      "stateMutability": "view",
      "type": "function"
    },
    {
      "constant": true,
      "inputs": [],
      "name": "transactionCount",
      "outputs": [
        {
          "name": "",
          "type": "uint256"
        }
      ],
      "payable": false,
      "stateMutability": "view",
      "type": "function"
    },
    {
      "constant": true,
      "inputs": [],
      "name": "MAX_OWNER_COUNT",
      "outputs": [
        {
          "name": "",
          "type": "uint256"
        }
      ],
      "payable": false,
      "stateMutability": "view",
      "type": "function"
    },
    {
      "constant": true,
      "inputs": [],
      "name": "required",
      "outputs": [
        {
          "name": "",
          "type": "uint256"
        }
      ],
      "payable": false,
      "stateMutability": "view",
      "type": "function"
    },
    {
      "constant": false,
      "inputs": [
        {
          "name": "newOwner",
          "type": "address"
        }
      ],
      "name": "transferOwnership",
      "outputs": [],
      "payable": false,
      "stateMutability": "nonpayable",
      "type": "function"
    },
    {
      "constant": false,
      "inputs": [
        {
          "name": "_recipient",
          "type": "address"
        }
      ],
      "name": "destroyAndSend",
      "outputs": [],
      "payable": false,
      "stateMutability": "nonpayable",
      "type": "function"
    },
    {
      "inputs": [
        {
          "name": "_owners",
          "type": "address[]"
        },
        {
          "name": "_required",
          "type": "uint256"
        }
      ],
      "payable": false,
      "stateMutability": "nonpayable",
      "type": "constructor"
    },
    {
      "payable": true,
      "stateMutability": "payable",
      "type": "fallback"
    },
    {
      "anonymous": false,
      "inputs": [
        {
          "indexed": true,
          "name": "sender",
          "type": "address"
        },
        {
          "indexed": true,
          "name": "transactionId",
          "type": "uint256"
        }
      ],
      "name": "Confirmation",
      "type": "event"
    },
    {
      "anonymous": false,
      "inputs": [
        {
          "indexed": true,
          "name": "sender",
          "type": "address"
        },
        {
          "indexed": true,
          "name": "transactionId",
          "type": "uint256"
        }
      ],
      "name": "Revocation",
      "type": "event"
    },
    {
      "anonymous": false,
      "inputs": [
        {
          "indexed": true,
          "name": "transactionId",
          "type": "uint256"
        }
      ],
      "name": "Submission",
      "type": "event"
    },
    {
      "anonymous": false,
      "inputs": [
        {
          "indexed": true,
          "name": "transactionId",
          "type": "uint256"
        }
      ],
      "name": "Execution",
      "type": "event"
    },
    {
      "anonymous": false,
      "inputs": [],
      "name": "ContractDestroyed",
      "type": "event"
    },
    {
      "anonymous": false,
      "inputs": [
        {
          "indexed": true,
          "name": "transactionId",
          "type": "uint256"
        }
      ],
      "name": "ExecutionFailure",
      "type": "event"
    },
    {
      "anonymous": false,
      "inputs": [
        {
          "indexed": true,
          "name": "sender",
          "type": "address"
        },
        {
          "indexed": false,
          "name": "value",
          "type": "uint256"
        }
      ],
      "name": "Deposit",
      "type": "event"
    },
    {
      "anonymous": false,
      "inputs": [
        {
          "indexed": true,
          "name": "previousOwner",
          "type": "address"
        },
        {
          "indexed": true,
          "name": "newOwner",
          "type": "address"
        }
      ],
      "name": "OwnershipTransferred",
      "type": "event"
    },
    {
      "constant": false,
      "inputs": [
        {
          "name": "destination",
          "type": "address"
        },
        {
          "name": "value",
          "type": "uint256"
        },
        {
          "name": "data",
          "type": "bytes"
        }
      ],
      "name": "submitTransaction",
      "outputs": [
        {
          "name": "transactionId",
          "type": "uint256"
        }
      ],
      "payable": false,
      "stateMutability": "nonpayable",
      "type": "function"
    },
    {
      "constant": false,
      "inputs": [
        {
          "name": "transactionId",
          "type": "uint256"
        }
      ],
      "name": "confirmTransaction",
      "outputs": [],
      "payable": false,
      "stateMutability": "nonpayable",
      "type": "function"
    },
    {
      "constant": false,
      "inputs": [
        {
          "name": "transactionId",
          "type": "uint256"
        }
      ],
      "name": "revokeConfirmation",
      "outputs": [],
      "payable": false,
      "stateMutability": "nonpayable",
      "type": "function"
    },
    {
      "constant": false,
      "inputs": [
        {
          "name": "transactionId",
          "type": "uint256"
        }
      ],
      "name": "executeTransaction",
      "outputs": [],
      "payable": false,
      "stateMutability": "nonpayable",
      "type": "function"
    },
    {
      "constant": true,
      "inputs": [
        {
          "name": "transactionId",
          "type": "uint256"
        }
      ],
      "name": "isConfirmed",
      "outputs": [
        {
          "name": "",
          "type": "bool"
        }
      ],
      "payable": false,
      "stateMutability": "view",
      "type": "function"
    },
    {
      "constant": true,
      "inputs": [
        {
          "name": "transactionId",
          "type": "uint256"
        }
      ],
      "name": "getConfirmationCount",
      "outputs": [
        {
          "name": "count",
          "type": "uint256"
        }
      ],
      "payable": false,
      "stateMutability": "view",
      "type": "function"
    },
    {
      "constant": true,
      "inputs": [],
      "name": "getOwners",
      "outputs": [
        {
          "name": "",
          "type": "address[]"
        }
      ],
      "payable": false,
      "stateMutability": "view",
      "type": "function"
    },
    {
      "constant": true,
      "inputs": [
        {
          "name": "transactionId",
          "type": "uint256"
        }
      ],
      "name": "getConfirmations",
      "outputs": [
        {
          "name": "_confirmations",
          "type": "address[]"
        }
      ],
      "payable": false,
      "stateMutability": "view",
      "type": "function"
    }
  ],
  "bytecode": "0x606060405234156200001057600080fd5b60405162001209380380620012098339810160405280805182019190602001805160008054600160a060020a03191633600160a060020a0316178155909250905082518260328211158015620000665750818111155b80156200007257508015155b80156200007e57508115155b15156200008a57600080fd5b600092505b84518310156200015b5760036000868581518110620000aa57fe5b90602001906020020151600160a060020a0316815260208101919091526040016000205460ff16158015620000fd5750848381518110620000e757fe5b90602001906020020151600160a060020a031615155b15156200010957600080fd5b6001600360008786815181106200011c57fe5b90602001906020020151600160a060020a031681526020810191909152604001600020805460ff1916911515919091179055600192909201916200008f565b6004858051620001709291602001906200022a565b5060058490556200018f3064010000000062000c756200019a82021704565b5050505050620002c0565b60005433600160a060020a03908116911614620001b657600080fd5b600160a060020a0381161515620001cc57600080fd5b600054600160a060020a0380831691167f8be0079c531659141344cd1fd0a4f28419497f9722a3daafe3b4186f6b6457e060405160405180910390a360008054600160a060020a031916600160a060020a0392909216919091179055565b82805482825590600052602060002090810192821562000284579160200282015b82811115620002845782518254600160a060020a031916600160a060020a0391909116178255602092909201916001909101906200024b565b506200029292915062000296565b5090565b620002bd91905b8082111562000292578054600160a060020a03191681556001016200029d565b90565b610f3980620002d06000396000f3006060604052600436106101065763ffffffff7c0100000000000000000000000000000000000000000000000000000000600035041663025e7c27811461014f57806320ea8d86146101815780632f54bf6e146101975780633411c81c146101ca578063784547a7146101ec57806383197ef0146102025780638b51d13f146102155780638da5cb5b1461023d5780639ace38c214610250578063a0e67e2b146102fe578063b5dc40c314610364578063b77bf6001461037a578063c01a8c841461038d578063c6427474146103a3578063d74f8edd14610408578063dc8452cd1461041b578063ee22610b1461042e578063f2fde38b14610444578063f5074f4114610463575b600034111561014d5733600160a060020a03167fe1fffcc4923d04b559f4d29a8bfc6cda04eb5b0d3c460751c2402c5c5cc9109c3460405190815260200160405180910390a25b005b341561015a57600080fd5b610165600435610482565b604051600160a060020a03909116815260200160405180910390f35b341561018c57600080fd5b61014d6004356104aa565b34156101a257600080fd5b6101b6600160a060020a0360043516610588565b604051901515815260200160405180910390f35b34156101d557600080fd5b6101b6600435600160a060020a036024351661059d565b34156101f757600080fd5b6101b66004356105bd565b341561020d57600080fd5b61014d610641565b341561022057600080fd5b61022b60043561066a565b60405190815260200160405180910390f35b341561024857600080fd5b6101656106d9565b341561025b57600080fd5b6102666004356106e8565b604051600160a060020a038516815260208101849052811515606082015260806040820181815290820184818151815260200191508051906020019080838360005b838110156102c05780820151838201526020016102a8565b50505050905090810190601f1680156102ed5780820380516001836020036101000a031916815260200191505b509550505050505060405180910390f35b341561030957600080fd5b6103116107ba565b60405160208082528190810183818151815260200191508051906020019060200280838360005b83811015610350578082015183820152602001610338565b505050509050019250505060405180910390f35b341561036f57600080fd5b610311600435610823565b341561038557600080fd5b61022b610987565b341561039857600080fd5b61014d60043561098d565b34156103ae57600080fd5b61022b60048035600160a060020a03169060248035919060649060443590810190830135806020601f82018190048102016040519081016040528181529291906020840183838082843750949650610a7a95505050505050565b341561041357600080fd5b61022b610aa7565b341561042657600080fd5b61022b610aac565b341561043957600080fd5b61014d600435610ab2565b341561044f57600080fd5b61014d600160a060020a0360043516610c75565b341561046e57600080fd5b61014d600160a060020a0360043516610d10565b600480548290811061049057fe5b600091825260209091200154600160a060020a0316905081565b33600160a060020a03811660009081526003602052604090205460ff1615156104d257600080fd5b600082815260026020908152604080832033600160a060020a038116855292529091205483919060ff16151561050757600080fd5b600084815260016020526040902060030154849060ff161561052857600080fd5b6000858152600260209081526040808320600160a060020a033316808552925291829020805460ff1916905586917ff6a317157440607f36269043eb55f1287a5a19ba2216afeab88cd46cbcfb88e9905160405180910390a35050505050565b60036020526000908152604090205460ff1681565b600260209081526000928352604080842090915290825290205460ff1681565b600080805b60045481101561063a57600084815260026020526040812060048054919291849081106105eb57fe5b6000918252602080832090910154600160a060020a0316835282019290925260400190205460ff161561061f576001820191505b600554821415610632576001925061063a565b6001016105c2565b5050919050565b60005433600160a060020a0390811691161461065c57600080fd5b600054600160a060020a0316ff5b6000805b6004548110156106d3576000838152600260205260408120600480549192918490811061069757fe5b6000918252602080832090910154600160a060020a0316835282019290925260400190205460ff16156106cb576001820191505b60010161066e565b50919050565b600054600160a060020a031681565b60016020818152600092835260409283902080548184015460028084018054600160a060020a03909416979296949590946000199085161561010002019093160491601f8301819004810201905190810160405280929190818152602001828054600181600116156101000203166002900480156107a75780601f1061077c576101008083540402835291602001916107a7565b820191906000526020600020905b81548152906001019060200180831161078a57829003601f168201915b5050506003909301549192505060ff1684565b6107c2610e63565b600480548060200260200160405190810160405280929190818152602001828054801561081857602002820191906000526020600020905b8154600160a060020a031681526001909101906020018083116107fa575b505050505090505b90565b61082b610e63565b610833610e63565b60045460009081906040518059106108485750595b9080825280602002602001820160405250925060009150600090505b600454811015610910576000858152600260205260408120600480549192918490811061088d57fe5b6000918252602080832090910154600160a060020a0316835282019290925260400190205460ff16156109085760048054829081106108c857fe5b600091825260209091200154600160a060020a03168383815181106108e957fe5b600160a060020a03909216602092830290910190910152600191909101905b600101610864565b8160405180591061091e5750595b90808252806020026020018201604052509350600090505b8181101561097f5782818151811061094a57fe5b9060200190602002015184828151811061096057fe5b600160a060020a03909216602092830290910190910152600101610936565b505050919050565b60065481565b33600160a060020a03811660009081526003602052604090205460ff1615156109b557600080fd5b6000828152600160205260409020548290600160a060020a031615156109da57600080fd5b600083815260026020908152604080832033600160a060020a038116855292529091205484919060ff1615610a0e57600080fd5b6000858152600260209081526040808320600160a060020a033316808552925291829020805460ff1916600117905586917f4a504a94899432a9846e1aa406dceb1bcfd538bb839071d49d1e5e23f5be30ef905160405180910390a3610a7385610ab2565b5050505050565b60065460009015610a8a57600080fd5b610a95848484610d37565b9050610aa08161098d565b9392505050565b603281565b60055481565b33600160a060020a03811660009081526003602052604081205490919060ff161515610add57600080fd5b600083815260026020908152604080832033600160a060020a038116855292529091205484919060ff161515610b1257600080fd5b600085815260016020526040902060030154859060ff1615610b3357600080fd5b610b3c866105bd565b15610c6d5760008681526001602081905260409182902060038101805460ff191683179055805491810154909750600160a060020a03909116916002880190518082805460018160011615610100020316600290048015610bde5780601f10610bb357610100808354040283529160200191610bde565b820191906000526020600020905b815481529060010190602001808311610bc157829003601f168201915b505091505060006040518083038185875af19250505015610c3357857f33e13ecb54c3076d8e8bb8c2881800a4d972b792045ffae98fdf46df365fed7560405160405180910390a2610c2e610e35565b610c6d565b857f526441bb6c1aba3c9a4a6ca1d6545da9c2333c8c48343ef398eb858d72b7923660405160405180910390a260038501805460ff191690555b505050505050565b60005433600160a060020a03908116911614610c9057600080fd5b600160a060020a0381161515610ca557600080fd5b600054600160a060020a0380831691167f8be0079c531659141344cd1fd0a4f28419497f9722a3daafe3b4186f6b6457e060405160405180910390a36000805473ffffffffffffffffffffffffffffffffffffffff1916600160a060020a0392909216919091179055565b60005433600160a060020a03908116911614610d2b57600080fd5b80600160a060020a0316ff5b600083600160a060020a0381161515610d4f57600080fd5b600654915060806040519081016040908152600160a060020a038716825260208083018790528183018690526000606084018190528581526001909152208151815473ffffffffffffffffffffffffffffffffffffffff1916600160a060020a039190911617815560208201518160010155604082015181600201908051610ddb929160200190610e75565b506060820151600391909101805460ff191691151591909117905550600680546001019055817fc0ba8fe4b176c1714197d43b9cc6bcf797a4a7461c5fe8d0ef6e184ae7601e5160405160405180910390a2509392505050565b7fde03921ed85499a33a8a7c878de268d59d2b7839e9fbd415ff4ab0ff18483a6f60405160405180910390a1565b60206040519081016040526000815290565b828054600181600116156101000203166002900490600052602060002090601f016020900481019282601f10610eb657805160ff1916838001178555610ee3565b82800160010185558215610ee3579182015b82811115610ee3578251825591602001919060010190610ec8565b50610eef929150610ef3565b5090565b61082091905b80821115610eef5760008155600101610ef95600a165627a7a72305820bc1fd678b0cb9cf2ec5dc1eea0893adb633f3e5bfc70fdff2348096af5f59eaa0029",
  "source": "pragma solidity ^0.4.21;\n\n/// @title SingleMultisig.sol\n/// @author Nicolas Frega - <nicolas.frega@srax.com>\n/// Allows multiple parties to agree on a single transaction before execution.\n/// The contract is destroyed after execution.\n/// Based on Gnosis Multisig Wallet - https://github.com/gnosis/MultiSigWallet.\n///\n\nimport 'zeppelin-solidity/contracts/ownership/Ownable.sol';\nimport 'zeppelin-solidity/contracts/lifecycle/Destructible.sol';\n\ncontract SingleMultiSig is Ownable, Destructible {\n\n    /*\n     *  Events\n     */\n    event Confirmation(address indexed sender, uint indexed transactionId);\n    event Revocation(address indexed sender, uint indexed transactionId);\n    event Submission(uint indexed transactionId);\n    event Execution(uint indexed transactionId);\n    event ContractDestroyed();\n    event ExecutionFailure(uint indexed transactionId);\n    event Deposit(address indexed sender, uint value);\n\n    /*\n     *  Constants\n     */\n    uint constant public MAX_OWNER_COUNT = 50;\n\n    /*\n     *  Storage\n     */\n    mapping (uint => Transaction) public transactions;\n    mapping (uint => mapping (address => bool)) public confirmations;\n    mapping (address => bool) public isOwner;\n    address[] public owners;\n    uint public required;\n    uint public transactionCount;\n\n    struct Transaction {\n        address destination;\n        uint value;\n        bytes data;\n        bool executed;\n    }\n\n\n    /*\n     *  Modifiers\n     */\n    modifier onlyWallet() {\n        require(msg.sender == address(this));\n        _;\n    }\n\n    modifier ownerDoesNotExist(address owner) {\n        require(!isOwner[owner]);\n        _;\n    }\n\n    modifier ownerExists(address owner) {\n        require(isOwner[owner]);\n        _;\n    }\n    modifier onlyOneTransaction() {\n      require(transactionCount == 0);\n      _;\n\n    }\n\n    modifier transactionExists(uint transactionId) {\n        require(transactions[transactionId].destination != 0);\n        _;\n    }\n\n    modifier confirmed(uint transactionId, address owner) {\n        require(confirmations[transactionId][owner]);\n        _;\n    }\n\n    modifier notConfirmed(uint transactionId, address owner) {\n        require(!confirmations[transactionId][owner]);\n        _;\n    }\n\n    modifier notExecuted(uint transactionId) {\n        require(!transactions[transactionId].executed);\n        _;\n    }\n\n    modifier notNull(address _address) {\n        require(_address != 0);\n        _;\n    }\n\n    modifier validRequirement(uint ownerCount, uint _required) {\n        require(ownerCount <= MAX_OWNER_COUNT\n            && _required <= ownerCount\n            && _required != 0\n            && ownerCount != 0);\n        _;\n    }\n\n    /// @dev Fallback function allows to deposit ether.\n    function()\n        public\n        payable\n    {\n        if (msg.value > 0) {\n            emit Deposit(msg.sender, msg.value);\n          }\n    }\n\n    /*\n     * Public functions\n     */\n    /// @dev Contract constructor sets initial owners and required number of confirmations.\n    /// @param _owners List of initial owners.\n    /// @param _required Number of required confirmations.\n    function SingleMultiSig(address[] _owners, uint _required)\n        public\n        validRequirement(_owners.length, _required)\n    {\n        for (uint i=0; i<_owners.length; i++) {\n            require(!isOwner[_owners[i]] && _owners[i] != 0);\n            isOwner[_owners[i]] = true;\n        }\n        owners = _owners;\n        required = _required;\n        transferOwnership(address(this));\n    }\n\n    /// @dev Allows an owner to submit and confirm a transaction.\n    /// @param destination Transaction target address.\n    /// @param value Transaction ether value.\n    /// @param data Transaction data payload.\n    /// @return Returns transaction ID.\n    function submitTransaction(address destination, uint value, bytes data)\n        public\n        onlyOneTransaction()\n        returns (uint transactionId)\n    {\n        transactionId = addTransaction(destination, value, data);\n        confirmTransaction(transactionId);\n    }\n\n    /// @dev Allows an owner to confirm a transaction.\n    /// @param transactionId Transaction ID.\n    function confirmTransaction(uint transactionId)\n        public\n        ownerExists(msg.sender)\n        transactionExists(transactionId)\n        notConfirmed(transactionId, msg.sender)\n    {\n        confirmations[transactionId][msg.sender] = true;\n        emit Confirmation(msg.sender, transactionId);\n        executeTransaction(transactionId);\n    }\n\n    /// @dev Allows an owner to revoke a confirmation for a transaction.\n    /// @param transactionId Transaction ID.\n    function revokeConfirmation(uint transactionId)\n        public\n        ownerExists(msg.sender)\n        confirmed(transactionId, msg.sender)\n        notExecuted(transactionId)\n    {\n        confirmations[transactionId][msg.sender] = false;\n        emit Revocation(msg.sender, transactionId);\n    }\n\n    /// @dev Allows anyone to execute a confirmed transaction.\n    /// @param transactionId Transaction ID.\n    function executeTransaction(uint transactionId)\n        public\n        ownerExists(msg.sender)\n        confirmed(transactionId, msg.sender)\n        notExecuted(transactionId)\n    {\n        if (isConfirmed(transactionId)) {\n            Transaction storage txn = transactions[transactionId];\n            txn.executed = true;\n            if (txn.destination.call.value(txn.value)(txn.data)) {\n                emit Execution(transactionId);\n                destroyContract();\n              }\n            else {\n                emit ExecutionFailure(transactionId);\n                txn.executed = false;\n            }\n        }\n    }\n\n    /// @dev Returns the confirmation status of a transaction.\n    /// @param transactionId Transaction ID.\n    /// @return Confirmation status. FIX OR TEST THIS!!!!!!!!!!!!!!!!\n    function isConfirmed(uint transactionId)\n        public\n        constant\n        returns (bool)\n    {\n        uint count = 0;\n        for (uint i=0; i<owners.length; i++) {\n            if (confirmations[transactionId][owners[i]])\n                count += 1;\n            if (count == required)\n                return true;\n        }\n    }\n\n    /*\n     * Internal functions\n     */\n    /// @dev Adds a new transaction to the transaction mapping, if transaction does not exist yet.\n    /// @param destination Transaction target address.\n    /// @param value Transaction ether value.\n    /// @param data Transaction data payload.\n    /// @return Returns transaction ID.\n    function addTransaction(address destination, uint value, bytes data)\n        internal\n        notNull(destination)\n        returns (uint transactionId)\n    {\n        transactionId = transactionCount;\n        transactions[transactionId] = Transaction({\n            destination: destination,\n            value: value,\n            data: data,\n            executed: false\n        });\n        transactionCount += 1;\n        emit Submission(transactionId);\n    }\n\n    /// @dev Destroys contract after one transaction is executed.\n    function destroyContract()\n        internal\n    {\n      emit ContractDestroyed();\n      /*if(this.balance != 0)\n        destroyAndSend(owners[0]);*/\n    }\n\n    /*\n     * Web3 call functions\n     */\n    /// @dev Returns number of confirmations of a transaction.\n    /// @param transactionId Transaction ID.\n    /// @return Number of confirmations.\n    function getConfirmationCount(uint transactionId)\n        public\n        constant\n        returns (uint count)\n    {\n        for (uint i=0; i<owners.length; i++)\n            if (confirmations[transactionId][owners[i]])\n                count += 1;\n    }\n\n\n    /// @dev Returns list of owners.\n    /// @return List of owner addresses.\n    function getOwners()\n        public\n        constant\n        returns (address[])\n    {\n        return owners;\n    }\n\n    /// @dev Returns array with owner addresses, which confirmed transaction.\n    /// @param transactionId Transaction ID.\n    /// @return Returns array of owner addresses.\n    function getConfirmations(uint transactionId)\n        public\n        constant\n        returns (address[] _confirmations)\n    {\n        address[] memory confirmationsTemp = new address[](owners.length);\n        uint count = 0;\n        uint i;\n        for (i=0; i<owners.length; i++)\n            if (confirmations[transactionId][owners[i]]) {\n                confirmationsTemp[count] = owners[i];\n                count += 1;\n            }\n        _confirmations = new address[](count);\n        for (i=0; i<count; i++)\n            _confirmations[i] = confirmationsTemp[i];\n    }\n\n}\n",
  "sourcePath": "/home/nico/Desktop/public_repos/single_multisig/contracts/SingleMultisig.sol",
  "compiler": {
    "name": "solc",
    "version": "0.4.21+commit.dfe3193c.Emscripten.clang"
  },
  "schemaVersion": "2.0.0",
  "updatedAt": "2018-04-15T04:51:13.960Z"
}