{
  "contractName": "SingleMultiSig",
  "abi": [
    {
      "constant": true,
      "inputs": [
        {
          "name": "",
          "type": "uint256"
        }
      ],
      "name": "owners",
      "outputs": [
        {
          "name": "",
          "type": "address"
        }
      ],
      "payable": false,
      "stateMutability": "view",
      "type": "function"
    },
    {
      "constant": true,
      "inputs": [
        {
          "name": "",
          "type": "address"
        }
      ],
      "name": "isOwner",
      "outputs": [
        {
          "name": "",
          "type": "bool"
        }
      ],
      "payable": false,
      "stateMutability": "view",
      "type": "function"
    },
    {
      "constant": true,
      "inputs": [
        {
          "name": "",
          "type": "uint256"
        },
        {
          "name": "",
          "type": "address"
        }
      ],
      "name": "confirmations",
      "outputs": [
        {
          "name": "",
          "type": "bool"
        }
      ],
      "payable": false,
      "stateMutability": "view",
      "type": "function"
    },
    {
      "constant": false,
      "inputs": [],
      "name": "destroy",
      "outputs": [],
      "payable": false,
      "stateMutability": "nonpayable",
      "type": "function"
    },
    {
      "constant": true,
      "inputs": [],
      "name": "owner",
      "outputs": [
        {
          "name": "",
          "type": "address"
        }
      ],
      "payable": false,
      "stateMutability": "view",
      "type": "function"
    },
    {
      "constant": true,
      "inputs": [
        {
          "name": "",
          "type": "uint256"
        }
      ],
      "name": "transactions",
      "outputs": [
        {
          "name": "destination",
          "type": "address"
        },
        {
          "name": "value",
          "type": "uint256"
        },
        {
          "name": "data",
          "type": "bytes"
        },
        {
          "name": "executed",
          "type": "bool"
        }
      ],
      "payable": false,
      "stateMutability": "view",
      "type": "function"
    },
    {
      "constant": true,
      "inputs": [],
      "name": "transactionCount",
      "outputs": [
        {
          "name": "",
          "type": "uint256"
        }
      ],
      "payable": false,
      "stateMutability": "view",
      "type": "function"
    },
    {
      "constant": true,
      "inputs": [],
      "name": "MAX_OWNER_COUNT",
      "outputs": [
        {
          "name": "",
          "type": "uint256"
        }
      ],
      "payable": false,
      "stateMutability": "view",
      "type": "function"
    },
    {
      "constant": true,
      "inputs": [],
      "name": "required",
      "outputs": [
        {
          "name": "",
          "type": "uint256"
        }
      ],
      "payable": false,
      "stateMutability": "view",
      "type": "function"
    },
    {
      "constant": false,
      "inputs": [
        {
          "name": "newOwner",
          "type": "address"
        }
      ],
      "name": "transferOwnership",
      "outputs": [],
      "payable": false,
      "stateMutability": "nonpayable",
      "type": "function"
    },
    {
      "constant": false,
      "inputs": [
        {
          "name": "_recipient",
          "type": "address"
        }
      ],
      "name": "destroyAndSend",
      "outputs": [],
      "payable": false,
      "stateMutability": "nonpayable",
      "type": "function"
    },
    {
      "inputs": [
        {
          "name": "_owners",
          "type": "address[]"
        },
        {
          "name": "_required",
          "type": "uint256"
        }
      ],
      "payable": false,
      "stateMutability": "nonpayable",
      "type": "constructor"
    },
    {
      "payable": true,
      "stateMutability": "payable",
      "type": "fallback"
    },
    {
      "anonymous": false,
      "inputs": [
        {
          "indexed": true,
          "name": "sender",
          "type": "address"
        },
        {
          "indexed": true,
          "name": "transactionId",
          "type": "uint256"
        }
      ],
      "name": "Confirmation",
      "type": "event"
    },
    {
      "anonymous": false,
      "inputs": [
        {
          "indexed": true,
          "name": "sender",
          "type": "address"
        },
        {
          "indexed": true,
          "name": "transactionId",
          "type": "uint256"
        }
      ],
      "name": "Revocation",
      "type": "event"
    },
    {
      "anonymous": false,
      "inputs": [
        {
          "indexed": true,
          "name": "transactionId",
          "type": "uint256"
        }
      ],
      "name": "Submission",
      "type": "event"
    },
    {
      "anonymous": false,
      "inputs": [
        {
          "indexed": true,
          "name": "transactionId",
          "type": "uint256"
        }
      ],
      "name": "Execution",
      "type": "event"
    },
    {
      "anonymous": false,
      "inputs": [],
      "name": "ContractDestroyed",
      "type": "event"
    },
    {
      "anonymous": false,
      "inputs": [
        {
          "indexed": true,
          "name": "transactionId",
          "type": "uint256"
        }
      ],
      "name": "ExecutionFailure",
      "type": "event"
    },
    {
      "anonymous": false,
      "inputs": [
        {
          "indexed": true,
          "name": "sender",
          "type": "address"
        },
        {
          "indexed": false,
          "name": "value",
          "type": "uint256"
        }
      ],
      "name": "Deposit",
      "type": "event"
    },
    {
      "anonymous": false,
      "inputs": [
        {
          "indexed": true,
          "name": "previousOwner",
          "type": "address"
        },
        {
          "indexed": true,
          "name": "newOwner",
          "type": "address"
        }
      ],
      "name": "OwnershipTransferred",
      "type": "event"
    },
    {
      "constant": false,
      "inputs": [
        {
          "name": "destination",
          "type": "address"
        },
        {
          "name": "value",
          "type": "uint256"
        },
        {
          "name": "data",
          "type": "bytes"
        }
      ],
      "name": "submitTransaction",
      "outputs": [
        {
          "name": "transactionId",
          "type": "uint256"
        }
      ],
      "payable": false,
      "stateMutability": "nonpayable",
      "type": "function"
    },
    {
      "constant": false,
      "inputs": [
        {
          "name": "transactionId",
          "type": "uint256"
        }
      ],
      "name": "confirmTransaction",
      "outputs": [],
      "payable": false,
      "stateMutability": "nonpayable",
      "type": "function"
    },
    {
      "constant": false,
      "inputs": [
        {
          "name": "transactionId",
          "type": "uint256"
        }
      ],
      "name": "revokeConfirmation",
      "outputs": [],
      "payable": false,
      "stateMutability": "nonpayable",
      "type": "function"
    },
    {
      "constant": false,
      "inputs": [
        {
          "name": "transactionId",
          "type": "uint256"
        }
      ],
      "name": "executeTransaction",
      "outputs": [],
      "payable": false,
      "stateMutability": "nonpayable",
      "type": "function"
    },
    {
      "constant": true,
      "inputs": [
        {
          "name": "transactionId",
          "type": "uint256"
        }
      ],
      "name": "isConfirmed",
      "outputs": [
        {
          "name": "",
          "type": "bool"
        }
      ],
      "payable": false,
      "stateMutability": "view",
      "type": "function"
    },
    {
      "constant": true,
      "inputs": [
        {
          "name": "transactionId",
          "type": "uint256"
        }
      ],
      "name": "getConfirmationCount",
      "outputs": [
        {
          "name": "count",
          "type": "uint256"
        }
      ],
      "payable": false,
      "stateMutability": "view",
      "type": "function"
    },
    {
      "constant": true,
      "inputs": [],
      "name": "getOwners",
      "outputs": [
        {
          "name": "",
          "type": "address[]"
        }
      ],
      "payable": false,
      "stateMutability": "view",
      "type": "function"
    },
    {
      "constant": true,
      "inputs": [
        {
          "name": "transactionId",
          "type": "uint256"
        }
      ],
      "name": "getConfirmations",
      "outputs": [
        {
          "name": "_confirmations",
          "type": "address[]"
        }
      ],
      "payable": false,
      "stateMutability": "view",
      "type": "function"
    }
  ],
  "bytecode": "0x60806040523480156200001157600080fd5b506040516200120338038062001203833981016040528051602082015160008054600160a060020a03191633600160a060020a0316178155919092018051909291908260328211801590620000665750818111155b80156200007257508015155b80156200007e57508115155b15156200008a57600080fd5b600092505b84518310156200016257600360008685815181101515620000ac57fe5b6020908102909101810151600160a060020a031682528101919091526040016000205460ff161580156200010257508483815181101515620000ea57fe5b90602001906020020151600160a060020a0316600014155b15156200010e57600080fd5b60016003600087868151811015156200012357fe5b602090810291909101810151600160a060020a03168252810191909152604001600020805460ff1916911515919091179055600192909201916200008f565b84516200017790600490602088019062000229565b50600584905562000191306401000000006200019c810204565b5050505050620002bd565b60005433600160a060020a03908116911614620001b857600080fd5b600160a060020a0381161515620001ce57600080fd5b60008054604051600160a060020a03808516939216917f8be0079c531659141344cd1fd0a4f28419497f9722a3daafe3b4186f6b6457e091a360008054600160a060020a031916600160a060020a0392909216919091179055565b82805482825590600052602060002090810192821562000281579160200282015b82811115620002815782518254600160a060020a031916600160a060020a039091161782556020909201916001909101906200024a565b506200028f92915062000293565b5090565b620002ba91905b808211156200028f578054600160a060020a03191681556001016200029a565b90565b610f3680620002cd6000396000f3006080604052600436106101065763ffffffff7c0100000000000000000000000000000000000000000000000000000000600035041663025e7c27811461015157806320ea8d86146101855780632f54bf6e1461019d5780633411c81c146101d2578063784547a7146101f657806383197ef01461020e5780638b51d13f146102235780638da5cb5b1461024d5780639ace38c214610262578063a0e67e2b1461031d578063b5dc40c314610382578063b77bf6001461039a578063c01a8c84146103af578063c6427474146103c7578063d74f8edd14610430578063dc8452cd14610445578063ee22610b1461045a578063f2fde38b14610472578063f5074f4114610493575b600034111561014f57604080513481529051600160a060020a033316917fe1fffcc4923d04b559f4d29a8bfc6cda04eb5b0d3c460751c2402c5c5cc9109c919081900360200190a25b005b34801561015d57600080fd5b506101696004356104b4565b60408051600160a060020a039092168252519081900360200190f35b34801561019157600080fd5b5061014f6004356104dc565b3480156101a957600080fd5b506101be600160a060020a03600435166105b2565b604080519115158252519081900360200190f35b3480156101de57600080fd5b506101be600435600160a060020a03602435166105c7565b34801561020257600080fd5b506101be6004356105e7565b34801561021a57600080fd5b5061014f61066b565b34801561022f57600080fd5b5061023b600435610694565b60408051918252519081900360200190f35b34801561025957600080fd5b50610169610703565b34801561026e57600080fd5b5061027a600435610712565b6040518085600160a060020a0316600160a060020a031681526020018481526020018060200183151515158152602001828103825284818151815260200191508051906020019080838360005b838110156102df5781810151838201526020016102c7565b50505050905090810190601f16801561030c5780820380516001836020036101000a031916815260200191505b509550505050505060405180910390f35b34801561032957600080fd5b506103326107ce565b60408051602080825283518183015283519192839290830191858101910280838360005b8381101561036e578181015183820152602001610356565b505050509050019250505060405180910390f35b34801561038e57600080fd5b50610332600435610831565b3480156103a657600080fd5b5061023b6109aa565b3480156103bb57600080fd5b5061014f6004356109b0565b3480156103d357600080fd5b50604080516020600460443581810135601f810184900484028501840190955284845261023b948235600160a060020a0316946024803595369594606494920191908190840183828082843750949750610a959650505050505050565b34801561043c57600080fd5b5061023b610ac2565b34801561045157600080fd5b5061023b610ac7565b34801561046657600080fd5b5061014f600435610acd565b34801561047e57600080fd5b5061014f600160a060020a0360043516610c94565b34801561049f57600080fd5b5061014f600160a060020a0360043516610d2c565b60048054829081106104c257fe5b600091825260209091200154600160a060020a0316905081565b33600160a060020a03811660009081526003602052604090205460ff16151561050457600080fd5b600082815260026020908152604080832033600160a060020a038116855292529091205483919060ff16151561053957600080fd5b600084815260016020526040902060030154849060ff161561055a57600080fd5b6000858152600260209081526040808320600160a060020a0333168085529252808320805460ff191690555187927ff6a317157440607f36269043eb55f1287a5a19ba2216afeab88cd46cbcfb88e991a35050505050565b60036020526000908152604090205460ff1681565b600260209081526000928352604080842090915290825290205460ff1681565b600080805b600454811015610664576000848152600260205260408120600480549192918490811061061557fe5b6000918252602080832090910154600160a060020a0316835282019290925260400190205460ff1615610649576001820191505b60055482141561065c5760019250610664565b6001016105ec565b5050919050565b60005433600160a060020a0390811691161461068657600080fd5b600054600160a060020a0316ff5b6000805b6004548110156106fd57600083815260026020526040812060048054919291849081106106c157fe5b6000918252602080832090910154600160a060020a0316835282019290925260400190205460ff16156106f5576001820191505b600101610698565b50919050565b600054600160a060020a031681565b6001602081815260009283526040928390208054818401546002808401805488516101009882161598909802600019011691909104601f8101869004860287018601909752868652600160a060020a0390921695909492938301828280156107bb5780601f10610790576101008083540402835291602001916107bb565b820191906000526020600020905b81548152906001019060200180831161079e57829003601f168201915b5050506003909301549192505060ff1684565b6060600480548060200260200160405190810160405280929190818152602001828054801561082657602002820191906000526020600020905b8154600160a060020a03168152600190910190602001808311610808575b505050505090505b90565b606080600080600480549050604051908082528060200260200182016040528015610866578160200160208202803883390190505b50925060009150600090505b600454811015610923576000858152600260205260408120600480549192918490811061089b57fe5b6000918252602080832090910154600160a060020a0316835282019290925260400190205460ff161561091b5760048054829081106108d657fe5b6000918252602090912001548351600160a060020a03909116908490849081106108fc57fe5b600160a060020a03909216602092830290910190910152600191909101905b600101610872565b8160405190808252806020026020018201604052801561094d578160200160208202803883390190505b509350600090505b818110156109a257828181518110151561096b57fe5b90602001906020020151848281518110151561098357fe5b600160a060020a03909216602092830290910190910152600101610955565b505050919050565b60065481565b33600160a060020a03811660009081526003602052604090205460ff1615156109d857600080fd5b6000828152600160205260409020548290600160a060020a031615156109fd57600080fd5b600083815260026020908152604080832033600160a060020a038116855292529091205484919060ff1615610a3157600080fd5b6000858152600260209081526040808320600160a060020a0333168085529252808320805460ff191660011790555187927f4a504a94899432a9846e1aa406dceb1bcfd538bb839071d49d1e5e23f5be30ef91a3610a8e85610acd565b5050505050565b60065460009015610aa557600080fd5b610ab0848484610d53565b9050610abb816109b0565b9392505050565b603281565b60055481565b33600160a060020a03811660009081526003602052604081205490919060ff161515610af857600080fd5b600083815260026020908152604080832033600160a060020a038116855292529091205484919060ff161515610b2d57600080fd5b600085815260016020526040902060030154859060ff1615610b4e57600080fd5b610b57866105e7565b15610c8c5760008681526001602081905260409182902060038101805460ff191683179055805481830154935160028084018054949b50600160a060020a039093169594929391928392859260001992821615610100029290920116048015610c015780601f10610bd657610100808354040283529160200191610c01565b820191906000526020600020905b815481529060010190602001808311610be457829003601f168201915b505091505060006040518083038185875af19250505015610c545760405186907f33e13ecb54c3076d8e8bb8c2881800a4d972b792045ffae98fdf46df365fed7590600090a2610c4f610e47565b610c8c565b60405186907f526441bb6c1aba3c9a4a6ca1d6545da9c2333c8c48343ef398eb858d72b7923690600090a260038501805460ff191690555b505050505050565b60005433600160a060020a03908116911614610caf57600080fd5b600160a060020a0381161515610cc457600080fd5b60008054604051600160a060020a03808516939216917f8be0079c531659141344cd1fd0a4f28419497f9722a3daafe3b4186f6b6457e091a36000805473ffffffffffffffffffffffffffffffffffffffff1916600160a060020a0392909216919091179055565b60005433600160a060020a03908116911614610d4757600080fd5b80600160a060020a0316ff5b600083600160a060020a0381161515610d6b57600080fd5b60065460408051608081018252600160a060020a038881168252602080830189815283850189815260006060860181905287815260018085529690208551815473ffffffffffffffffffffffffffffffffffffffff191695169490941784559051948301949094559251805194965091939092610def926002850192910190610e72565b50606091909101516003909101805460ff191691151591909117905560068054600101905560405182907fc0ba8fe4b176c1714197d43b9cc6bcf797a4a7461c5fe8d0ef6e184ae7601e5190600090a2509392505050565b6040517fde03921ed85499a33a8a7c878de268d59d2b7839e9fbd415ff4ab0ff18483a6f90600090a1565b828054600181600116156101000203166002900490600052602060002090601f016020900481019282601f10610eb357805160ff1916838001178555610ee0565b82800160010185558215610ee0579182015b82811115610ee0578251825591602001919060010190610ec5565b50610eec929150610ef0565b5090565b61082e91905b80821115610eec5760008155600101610ef65600a165627a7a72305820000d3efda2f841687f299572382f44099ca5a7047adf560285ddf2f49aba6f0e0029",
  "source": "pragma solidity ^0.4.21;\n\n/// @title SingleMultisig.sol\n/// @author Nicolas Frega - <nicolas.frega@srax.com>\n/// Allows multiple parties to agree on a single transaction before execution.\n/// The contract is destroyed after execution.\n/// Based on Gnosis Multisig Wallet - https://github.com/gnosis/MultiSigWallet.\n///\n\nimport \"./Ownable.sol\";\nimport \"./Destructible.sol\";\n\ncontract SingleMultiSig is Ownable, Destructible {\n\n    /*\n     *  Events\n     */\n    event Confirmation(address indexed sender, uint indexed transactionId);\n    event Revocation(address indexed sender, uint indexed transactionId);\n    event Submission(uint indexed transactionId);\n    event Execution(uint indexed transactionId);\n    event ContractDestroyed();\n    event ExecutionFailure(uint indexed transactionId);\n    event Deposit(address indexed sender, uint value);\n\n    /*\n     *  Constants\n     */\n    uint constant public MAX_OWNER_COUNT = 50;\n\n    /*\n     *  Storage\n     */\n    mapping (uint => Transaction) public transactions;\n    mapping (uint => mapping (address => bool)) public confirmations;\n    mapping (address => bool) public isOwner;\n    address[] public owners;\n    uint public required;\n    uint public transactionCount;\n\n    struct Transaction {\n        address destination;\n        uint value;\n        bytes data;\n        bool executed;\n    }\n\n    /*\n     *  Modifiers\n     */\n    modifier onlyWallet() {\n        require(msg.sender == address(this));\n        _;\n    }\n\n    modifier ownerDoesNotExist(address owner) {\n        require(!isOwner[owner]);\n        _;\n    }\n\n    modifier ownerExists(address owner) {\n        require(isOwner[owner]);\n        _;\n    }\n\n    modifier onlyOneTransaction() {\n        require(transactionCount == 0);\n        _;\n\n    }\n\n    modifier transactionExists(uint transactionId) {\n        require(transactions[transactionId].destination != 0);\n        _;\n    }\n\n    modifier confirmed(uint transactionId, address owner) {\n        require(confirmations[transactionId][owner]);\n        _;\n    }\n\n    modifier notConfirmed(uint transactionId, address owner) {\n        require(!confirmations[transactionId][owner]);\n        _;\n    }\n\n    modifier notExecuted(uint transactionId) {\n        require(!transactions[transactionId].executed);\n        _;\n    }\n\n    modifier notNull(address _address) {\n        require(_address != 0);\n        _;\n    }\n\n    modifier validRequirement(uint ownerCount, uint _required) {\n        require(\n            ownerCount <= MAX_OWNER_COUNT && _required <= ownerCount && _required != 0 && ownerCount != 0\n        );\n        _;\n    }\n\n    /// @dev Fallback function allows to deposit ether.\n    function()\n        public\n        payable\n    {\n        if (msg.value > 0) {\n            emit Deposit(msg.sender, msg.value);\n          }\n    }\n\n    /*\n     * Public functions\n     */\n    /// @dev Contract constructor sets initial owners and required number of confirmations.\n    /// @param _owners List of initial owners.\n    /// @param _required Number of required confirmations.\n    constructor(address[] _owners, uint _required)\n        public\n        validRequirement(_owners.length, _required)\n    {\n        for (uint i = 0; i < _owners.length; i++) {\n            require(!isOwner[_owners[i]] && _owners[i] != 0);\n            isOwner[_owners[i]] = true;\n        }\n        owners = _owners;\n        required = _required;\n        transferOwnership(address(this));\n    }\n\n    /// @dev Allows an owner to submit and confirm a transaction.\n    /// @param destination Transaction target address.\n    /// @param value Transaction ether value.\n    /// @param data Transaction data payload.\n    /// @return Returns transaction ID.\n    function submitTransaction(address destination, uint value, bytes data)\n        public\n        onlyOneTransaction()\n        returns (uint transactionId)\n    {\n        transactionId = addTransaction(destination, value, data);\n        confirmTransaction(transactionId);\n    }\n\n    /// @dev Allows an owner to confirm a transaction.\n    /// @param transactionId Transaction ID.\n    function confirmTransaction(uint transactionId)\n        public\n        ownerExists(msg.sender)\n        transactionExists(transactionId)\n        notConfirmed(transactionId, msg.sender)\n    {\n        confirmations[transactionId][msg.sender] = true;\n        emit Confirmation(msg.sender, transactionId);\n        executeTransaction(transactionId);\n    }\n\n    /// @dev Allows an owner to revoke a confirmation for a transaction.\n    /// @param transactionId Transaction ID.\n    function revokeConfirmation(uint transactionId)\n        public\n        ownerExists(msg.sender)\n        confirmed(transactionId, msg.sender)\n        notExecuted(transactionId)\n    {\n        confirmations[transactionId][msg.sender] = false;\n        emit Revocation(msg.sender, transactionId);\n    }\n\n    /// @dev Allows anyone to execute a confirmed transaction.\n    /// @param transactionId Transaction ID.\n    function executeTransaction(uint transactionId)\n        public\n        ownerExists(msg.sender)\n        confirmed(transactionId, msg.sender)\n        notExecuted(transactionId)\n    {\n        if (isConfirmed(transactionId)) {\n            Transaction storage txn = transactions[transactionId];\n            txn.executed = true;\n            if (txn.destination.call.value(txn.value)(txn.data)) {\n                emit Execution(transactionId);\n                destroyContract();\n              }\n            else {\n                emit ExecutionFailure(transactionId);\n                txn.executed = false;\n            }\n        }\n    }\n\n    /// @dev Returns the confirmation status of a transaction.\n    /// @param transactionId Transaction ID.\n    /// @return Confirmation status. FIX OR TEST THIS!!!!!!!!!!!!!!!!\n    function isConfirmed(uint transactionId)\n        public\n        view\n        returns (bool)\n    {\n        uint count = 0;\n        for (uint i = 0; i < owners.length; i++) {\n            if (confirmations[transactionId][owners[i]])\n                count += 1;\n            if (count == required)\n                return true;\n        }\n    }\n\n    /*\n     * Internal functions\n     */\n    /// @dev Adds a new transaction to the transaction mapping, if transaction does not exist yet.\n    /// @param destination Transaction target address.\n    /// @param value Transaction ether value.\n    /// @param data Transaction data payload.\n    /// @return Returns transaction ID.\n    function addTransaction(address destination, uint value, bytes data)\n        internal\n        notNull(destination)\n        returns (uint transactionId)\n    {\n        transactionId = transactionCount;\n        transactions[transactionId] = Transaction({\n            destination: destination,\n            value: value,\n            data: data,\n            executed: false\n        });\n        transactionCount += 1;\n        emit Submission(transactionId);\n    }\n\n    /// @dev Destroys contract after one transaction is executed.\n    function destroyContract()\n        internal\n    {\n        emit ContractDestroyed();\n        /*if(this.balance != 0)\n          destroyAndSend(owners[0]);*/\n    }\n\n    /*\n     * Web3 call functions\n     */\n    /// @dev Returns number of confirmations of a transaction.\n    /// @param transactionId Transaction ID.\n    /// @return Number of confirmations.\n    function getConfirmationCount(uint transactionId)\n        public\n        view\n        returns (uint count)\n    {\n        for (uint i = 0; i < owners.length; i++)\n            if (confirmations[transactionId][owners[i]]) {\n                count += 1;\n            }\n    }\n\n\n    /// @dev Returns list of owners.\n    /// @return List of owner addresses.\n    function getOwners()\n        public\n        view\n        returns (address[])\n    {\n        return owners;\n    }\n\n    /// @dev Returns array with owner addresses, which confirmed transaction.\n    /// @param transactionId Transaction ID.\n    /// @return Returns array of owner addresses.\n    function getConfirmations(uint transactionId)\n        public\n        view\n        returns (address[] _confirmations)\n    {\n        address[] memory confirmationsTemp = new address[](owners.length);\n        uint count = 0;\n        uint i;\n        for (i = 0; i < owners.length; i++)\n            if (confirmations[transactionId][owners[i]]) {\n                confirmationsTemp[count] = owners[i];\n                count += 1;\n            }\n        _confirmations = new address[](count);\n        for (i = 0; i < count; i++)\n            _confirmations[i] = confirmationsTemp[i];\n    }\n\n}\n",
  "sourcePath": "/home/nico/Desktop/public_repos/single_multisig/contracts/SingleMultisig.sol",
  "compiler": {
    "name": "solc",
    "version": "0.4.23+commit.124ca40d.Emscripten.clang"
  },
  "schemaVersion": "2.0.0",
  "updatedAt": "2018-04-30T22:03:10.258Z"
}